S01000006E63705F656D7074792E73333715
S214006000C00A00200D6E0000096E0000096E000038
S214006010B59C0000096E0000096E0000096E0000C5
S214006020096E0000096E0000096E0000096E00008F
S214006030096E0000D85C030095620000096E00003F
S214006040096E0000096E0000096E0000096E00006F
S214006050096E0000096E0000096E0000096E00005F
S214006060096E0000096E0000096E0000096E00004F
S214006070C5A80000096E0000096E0000F36300006A
S214006080096E0000096E0000096E0000096E00002F
S214006090096E000095720000096E0000096E00008F
S2140060A0096E00009973000075730000096E000009
S2140060B0096E0000B5480300096E00007152030027
S2140060C029520300255203007D4A03006D52030047
S2140060D02D5203004552030031520300D1520300F3
S2140060E0092D0300D12E0300B1520300096E0000F3
S2140060F0399B0000096E0000096E0000096E000062
S214006100096E0000096E0000096E0000096E0000AE
S214006110096E0000096E0000096E0000096E00009E
S214006120096E0000096E0000096E0000096E00008E
S214006130096E0000096E0000096E0000096E00007E
S21400614010B5054C237833B9044B13B1044800E06E
S21400615000BF0123237010BDD80F002000000000F0
S21400616074AB030008B5034B1BB10349034800E0BA
S21400617000BF08BD00000000DC0F002074AB030069
S214006180A3F5803A704700BF174B002B08BF134B90
S2140061909D46FFF7F5FF00218B460F461348144A2D
S2140061A0121A2FF09AFB0E4B002B00D098470D4B7F
S2140061B0002B00D098470020002104000D000D4859
S2140061C0002802D00C4800E000BF2FF01BFB200088
S2140061D0290000F035F82FF001FB00BF0000080092
S2140061E00000000000000000C00A0020D80F0020B9
S2140061F020320020000000000000000070477047BA
S21400620038B543780446012B05D0022B0BD000226C
S2140062100120114603E00246002012F8011BBDE8EB
S214006220384000F0B5B9054615F8011B00202A468F
S21400623000F0AEF929462078BDE8384000F0ABB94A
S21400624008B504F05CFBFFF7D9FF04F065FBFFF729
S214006250D6FFFAE708B508F095FC0AF074F910F0D6
S21400626019FE0CF000FF11F07BFCBDE808400AF0B8
S21400627067BB10B5044620F06FF920F0EBFA15F076
S21400628045FB1DF0F9FE16F0EBF86079BDE810400E
S21400629008F0E6B808F0F0BA08B50648FFF7E9FFD8
S2140062A0044808F0ABF8044808F0D8F8BDE8084001
S2140062B016F060B98C5C0300585C030000B5C3B0F0
S2140062C008F00CFA08F035FA48B100F09BF930B146
S2140062D001A820F067FB10B901A800F05FF943B0F1
S2140062E05DF804FB00F0E6BC08B50321802002F050
S2140062F009FA03214FF4806002F004FA03214FF4F8
S214006300906002F0FFF908214FF4C06002F0FAF93D
S21400631008214FF4F06002F0F5F908213E2002F063
S214006320F1F908212D2002F0EDF9002008BD00004B
S21400633008B5174B1B68C3F30743012B0ED1154B4B
S21400634004205A6E4FF480231349520358BF134A51
S2140063504B6601F51041086258BF536603F0F6F924
S21400636000F0BCFC03F072F903F00EFA03F090F9AB
S21400637003F0CCF903F0D0F9FFF7B6FF03F076F997
S21400638000F0A1FC01F01AF8BDE8084003F0F8BCE4
S2140063900080E00F008000400090004000A0004019
S2140063A008B500F0CFFFBDE8084000F02FB808B5EC
S2140063B000F07EFC04F008F803F0E8F906F03BFE77
S2140063C0BDE8084003F0CCBB08B503F033F9BDE8E0
S2140063D00840FFF761BF08B500F0F4F9BDE80840D3
S2140063E000F060B8704700F03DBCFFF767BF00F0F4
S2140063F069B800F0A7BA000018B1034B1860002077
S21400640070472520704700BF5010002010B5054C7F
S2140064100549206801F04AFB2068BDE81040FFF7F8
S214006420EBBF00BF0C0B0020100C0020014B1868BF
S214006430704700BF5010002038B502F000FB084D32
S21400644004462846002130F8022B2FF046FA002397
S21400645020462B8085F80631BDE8384002F0F5BAB4
S2140064605610002038B502F0EAFA084D04464FF4FC
S2140064708272A81C00212FF030FA002320462B80C1
S21400648085F80631BDE8384002F0DFBA94110020E6
S214006490002208B511464A201FF0AAF8BDE80840B9
S2140064A0FFF7CABF08B5FFF7C7FFFFF7DBFF00F02F
S2140064B0DFF90022014B1A7008BD00BF54100020FF
S2140064C0012070472C4970B591F806312B4C3BB330
S2140064D02B4E337823BB94F806313BBBD1F8020031
S2140064E0284A81F8063120F47F4323F007039342BD
S2140064F02FD18A7942B3881DFFF782FE1FF082FCF7
S2140065000546FFF799FF012328683370030203F45A
S214006510E063C0F3072018432946043000F08CF9E6
S21400652094F8063133B3164B1B781BBB00230122AD
S21400653084F80631124B208813491A7000F07CF953
S214006540BDE87040FFF78EBF114601201FF054FBD8
S214006550D4E70E4A934209D18B791BB1881D00F00F
S214006560B9F8CBE701201FF059FBC7E706311FF04B
S214006570C1FCC3E770BD00BF561000209411002078
S214006580541000202000FF00961100202000FF017C
S21400659080B21FF031BB1FF039BB0000F8B50546CE
S2140065A0006820F47F4020F0070000F0F5F828BBD4
S2140065B02846FFF785FF08B32A68114E140204F434
S2140065C0E064C2F30722144302F039FA3388043435
S2140065D0C3F58272944207460BD802332246F0185F
S2140065E029462FF053F90123328886F806311444E1
S2140065F034803846BDE8F84002F027BAF8BD00BF40
S21400660094110020084A1388C3F58273984208D86C
S21400661092F806312BB9054B93F8060180F001007D
S21400662070470020704700BF9411002056100020CD
S2140066300022014B1A70704754100020F0B50D462A
S214006640044685B000B1FEE7039202F0F8F91E4F4B
S21400665006463888AAB2C0F582739A42039918D8BB
S214006660023038442FF012F93988294489B20329B8
S214006670398018D9D7F802200124130203F4E06306
S214006680C2F30722134304338B4202D887F806412D
S2140066900224304602F0D9F9022C06D10B4800F04D
S2140066A01BFA70B1FEE70124F3E7012C09D10023A1
S2140066B04FF4FA71064A0548009300F027FA00B135
S2140066C0FEE705B0F0BD00BF5610002060110020A8
S2140066D091640000F8B543780278012B14D0022BA1
S2140066E02BD063BB052A2AD1294C2278082A4AD007
S2140066F02849D0F802000D46DEB2B24224D845F84A
S21400670022000132227016E0052A18D1204D2B787F
S214006710002B3AD01F4C00222146D0F8026054F8D5
S214006720047BD0B2BE421FD10024013B41F8224078
S2140067302B7098420FDB002002E0012A1AD00120BD
S214006740BDE8F8401FF06ABA51F8046B0133B04256
S214006750D2D12E20F4E7421C51F8225041F82050A6
S21400676041F82240D0B2E4E70132D0B29842D6D304
S2140067702D20E5E72022002106482FF0AEF8002065
S214006780034B1870DCE71C20DAE71B20D8E700BFB5
S214006790BC1200209C12002010B5084B084A1C783A
S2140067A00023D9B28C4201D8002010BD52F8041B39
S2140067B001338842F5D10120F7E700BFBC12002064
S2140067C09C12002038B54FF48272002114482FF036
S2140067D084F84FF48272002112482FF07EF8FFF7FB
S2140067E025FE114A0368114D9342286004D002F535
S2140067F08042934211D0FEE70D230D4A002013700D
S21400680001F03CFC2B680446186802F0EBFCB4FB75
S214006810F0F0084B8000186038BD0F23EDE700BF8E
S214006820BE120020C813002000C00540CC14002073
S214006830BD120020C4130020B0F5827F07B50246C3
S21400684000D9FEE7019007482FF020F80648074BCE
S214006850019A0449006801F021FA00B1FEE703B08E
S2140068605DF804FBC8130020CC140020DD6800008F
S21400687008B5144B93F90030002B0CDB012203F013
S2140068801F015B099B0003F160438A4003F56143E7
S214006890C3F880211A600C4B0C4A18680C49036830
S2140068A05A6603F500529164DA6C0A4942F42042B3
S2140068B0DA644FF48272084B01F0CCF900B1FEE7BF
S2140068C008BD00BFBD120020CC140020FF0024002D
S2140068D0FFFF0100BE12002021690000F8B5064641
S2140068E00C4600250C4F304601F0A8F9830605D467
S2140068F03A68ABB29A4205F10105F4D8201E18BFDB
S2140069000120FFF795FEBDE8F8404FF482720021A3
S21400691002482EF0E2BF00BFC4130020C8130020B8
S214006920084608B50038194618BF0120FFF786FE4E
S214006930BDE808404FF48272002101482EF0CDBF1A
S214006940BE1200202DE9F843564C23681B689B6C4A
S2140069501B0440F1A58002F072F8246805462368FF
S2140069605A6E22F4E0225A665A6E42F480225A6622
S2140069704FF4004203F500539A6402F060F8A36AED
S21400698006469B889BB243B902F05FF8FFF770FF9C
S2140069902846BDE8F84302F058B8E06800F038FC36
S2140069A00023D4F8288084F8303002F048F8B8F88D
S2140069B004309BB2002BE7D01427B8F8029002F000
S2140069C044F81FFA89F907FB09F909F11001414457
S2140069D0E06800F03DFC344BC844C8F81830D4F8E2
S2140069E02880B8F804309BB2B3B994F83530032B3E
S2140069F010D094F83630002B47D142F21C620421A6
S214006A0023795B0103F1804303F57033995002222A
S214006A1023685A613046B7E702F011F8B8F80490D8
S214006A201FFA89F9B9F1000F04D102F00EF8D9F86F
S214006A300C30FFDEB8F80290B8F80230B8F806203E
S214006A409BB20133B3FBF2F102FB11339BB2A8F801
S214006A500230B8F804301FFA89F9013B9BB2A8F857
S214006A60043007FB098801F0F0FFD8F81490B9F15C
S214006A70000FB4D0D8F80C20D8F810300021D31A64
S214006A802046D8F80820C847A9E7022BC2D12068BC
S214006A90016C11F0020118BF062102F04FF9B9E7A8
S214006AA0BDE8F883CC140020097000F000220949E4
S214006AB00B684BB1834204D1436A4AB1536201204A
S214006AC070471A465B6AF4E70028F5D01846704708
S214006AD00B60F4E7D014002010B5044690B103F024
S214006AE0ADFC2046FFF7E2FF58B194F8280040B10D
S214006AF001F0A5FF044A1368013B136001F0A5FFEF
S214006B00002010BD2220FCE7D41400202DE9F04F11
S214006B1085B00546914698460E469DF8387009B9E8
S214006B20002F64D12846FFF7D7FF044600283CD143
S214006B3085F82800286303F071FD864239D903F0F2
S214006B4049FD40F2E7318C462146E6FB00C14FF492
S214006B507A72604600232EF0A9FC4FF0FF32002325
S214006B6083468A462EF0A2FC4FF0FF32688600234A
S214006B70584651462EF09AFC2B46CDE90044114665
S214006B801C4A284603F0F5FC044670B91A4AC5E9C3
S214006B900798136885F82970EE6233B31A465B6A65
S214006BA0002BFBD1556200236B62204605B0BDE882
S214006BB0F08F304603A957B103F012FD04460028B3
S214006BC0F3D12B46CDE900000A4A0399D9E703F032
S214006BD007FD04460028E8D12B462846CDE9007775
S214006BE0044A039903F0A2FCCEE71560DBE72124F4
S214006BF0DBE700BFFD6B0000D014002091F82830C2
S214006C0013B50C4683B90B8E4A8E93420ED243B907
S214006C10CDE9003320460B46104A4FF0FF3103F013
S214006C204FFC238E0133238602B010BD52B191F87B
S214006C3029307BB101230093D1E907232046C96A96
S214006C40FFF764FF0123064A84F8283013680133EF
S214006C501360E9E7084603F0F1FBF3E7FD6B00007D
S214006C60D414002070B5104D2B681BB100260F4BB6
S214006C701C6804B970BD94F8283093B101F0DFFEAB
S214006C802B6884F82860013B2B6001F0DEFE94F848
S214006C90293013B92046FFF709FFD4E9073120460B
S214006CA09847646AE5E700BFD4140020D01400209B
S214006CB00F207047042208B511460023012002F079
S214006CC09BF8002008BD08B501213A2001F0B4F970
S214006CD0FFF708FBBDE8084000F004B801213A20A1
S214006CE001F0AAB92DE9F047434D88B001AC0FCDAD
S214006CF00FC495E80700012584E8070001213A2023
S214006D0001F09AF9DFF8FC800121282001F094F9BF
S214006D103A4B404601A903938DF8125002F042FB0D
S214006D202B4604220021022002F066F82A46294655
S214006D300023022002F060F802212B4608460422B7
S214006D4002F05AF804222B461146002002F054F8AE
S214006D504FF002132A4C0226C4F83036A3F58033CF
S214006D60C4F82C361C231027C4F8346604F5005AE1
S214006D70C4F81C364FF4487003F0DAFD04F5805969
S214006D801420CAF8107003F0D3FD2320C9F8107041
S214006D9003F0CEFDB9214046CAF8107002F062FB3F
S214006DA0002330461A461946C9F8107002F024F837
S214006DB0002329461A46304602F01EF82B46314676
S214006DC03046002202F018F800222B461046042116
S214006DD002F012F8404602F035FA00212820C4F8E6
S214006DE03016C4F82C16C4F83416C4F81C1601F075
S214006DF023F908B0BDE8F087BC5C030000127A00F7
S214006E0000C0034000C00540FEE7000008B500F0E3
S214006E1013F8064B064A07498B4201D3FFF7B4F92D
S214006E2052F8040B43F8040BF6E700BFC00A002034
S214006E307CAB0300D80F0020044B054A9A60D3F8B9
S214006E40882042F47002C3F88820704700ED00E006
S214006E5000600000014B1868704700BF380C002027
S214006E60084B1B6F03F00703022B04D0032B05D03F
S214006E70012B05D0FEE7044B18687047034BFBE771
S214006E800348704700800040380C00203C0C00206F
S214006E90002D310108B5FFF7E3FF054B1B6FC3F369
S214006EA003330133B0FBF3F0024B186008BD00BF9C
S214006EB000800040340C00200048704700B4C40432
S214006EC0014B1868704700BF3C0C0020054B18604B
S214006ED0054B1B6F03F00703032B01D1FFF7DABF47
S214006EE0704700BF3C0C0020008000400020704728
S214006EF000487047002D31014FF4004070474FF4B2
S214006F007A707047014B1868704700BF400C00202D
S214006F1000230360704703680B60016070470346F8
S214006F20006818B102681A6000230360704703689F
S214006F3003B970478B4202D10B680360704718464E
S214006F40F5E7000005490A681318054883428CBF18
S214006F504FF0FF320B601046704700BF440C002015
S214006F60008000202DE9F04F9A46564B85B01B78DE
S214006F7006460F461546DDF83C909DF844B0DDF811
S214006F805080002B00F08D80072A00F28C800E9B2C
S214006F90002B00F08880B9F1000F00F08480129B6F
S214006FA0B3F5006F7FDC012802D1109B002B7AD04E
S214006FB0454B03EB05131B7B002B76D0434C10226E
S214006FC0002168462EF089FC04EB45141022002FA1
S214006FD059D1394620462EF080FC43F210036380D8
S214006FE0BBF1000F03D1E37843F00303E370374AA5
S214006FF00E9B02EB451CCCE90193129B6901013BF9
S214007000C3F30A009DF84C30012E03F003034FEA49
S214007010836343EA001E53582D48CDF800A000EACB
S21400702003004EEA0003535041D113230CF1100E17
S214007030CCF80C309CE80F008EE80F006FF00301D0
S214007040DCF81C20109B61F39F02012FCCF81C205B
S214007050CCF8143003D1CCF81890CCF804300027C4
S214007060194A290102EB051342F80180159A2846B1
S2140070705A60694622469F605E7301F02FFF3846CD
S21400708005B0BDE8F08F002120462EF026FC4FF418
S21400709044736380BBF1000FA9D1E37843F030035B
S2140070A0A4E70C48ECE70C48EAE70C48E8E7B8F138
S2140070B0000FD4D19CF8023068F304138CF8023029
S2140070C0CDE700BF58160020D81400205815002021
S2140070D00F80FFF3028000F0018000F0078000F0D0
S2140070E038B5124B05461B78DBB1E0B101F0A7FCC2
S2140070F00F4A00231146147B54B92B6001251A0150
S21400710001EB03131D738C5001F09FFC204638BD25
S2140071100133082B02F11002EDD101F096FC054870
S214007120F5E70548F3E70548F1E700BF58160020E5
S214007130D8140020048000F0028000F0018000F0E7
S214007140154B13B51868002301908DF8043001F034
S21400715076FC124B1C7824B101F077FC104802B084
S21400716010BD01221A7001F070FC0E4B01A81C73B2
S2140071701C7783F82C4083F83C4083F84C4083F817
S2140071805C4083F86C4083F87C4008238DF8073019
S21400719001F072FE2046E2E7185D03005816002054
S2140071A0038000F0D814002010B588B00E9C009222
S2140071B007940D9C024606949DF8304005940B9C5F
S2140071C004949DF8284003940024CDE90134204619
S2140071D00B462146FFF7C6FE08B010BD10B588B0B6
S2140071E00E9C009207940D9C024606949DF8304033
S2140071F005940B9C04949DF8284003940024CDE944
S214007200013420460B460121FFF7ACFE08B010BD46
S2140072100A4A08B5127852B107280AD8084A02EB7B
S21400722000131B7B3BB101F0A7FE002008BD0548FC
S214007230FCE70548FAE70548F8E700BF58160020BF
S214007240D8140020028000F0018000F0078000F0D3
S2140072500B4A10B512780C4662B107280CD859B103
S214007260084A02EB00131B7B43B101F097FE206037
S214007270002010BD0448FCE70448FAE70448F8E795
S21400728058160020D8140020028000F0018000F07C
S214007290078000F02DE9F843174B1F6D5B6D1F400C
S2140072A000D5FEE701260025144CDFF85480DFF8F1
S2140072B05490374217D02368C8F850609BB1A16835
S2140072C0284601316268A1609847637B012B0AD18A
S2140072D048B909EB45131A7B60F341021A731A7F0B
S2140072E060F341021A770135082D4FEA460604F18D
S2140072F01004DED1BDE8F88300000440D814002056
S214007300002004405815002070B5044601250C4E98
S21400731004B970BD94FAA4F3B3FA83F305FA03F242
S21400732006EB031124EA02044A68002AF0D0D8B219
S2140073300B7B13B189689047EAE79047E8E700BF00
S2140073405C16002008B5192001F082FB28B14FF02A
S2140073500072074BC3F880211A601A2001F078FBF0
S21400736028B14FF08062024BC3F880211A6008BD36
S21400737000E100E0074BD3F82404D3F8202403F5FB
S2140073800053104000F0553020F05020C3F8200481
S214007390FFF7BABF00C00340074BD3F82404D3F866
S2140073A0202403F50053104000F0AA3020F0A0205F
S2140073B0C3F82004FFF7A8BF00C00340024B1968BB
S2140073C0024B186826F03EB94C0C0020480C0020F2
S2140073D07047000037B5920004460D4601922EF025
S2140073E077FB431C0BD060B929462046019A2EF045
S2140073F03DFA0028044808BF002003B030BD03480B
S214007400FBE70348F9E700BF10E000F021E000F0DA
S21400741024E000F013B5044601A801F071FE9DF8C3
S2140074200630012223804FF4807300206380054BD2
S2140074309B680A3303F01F0302FA03F3636002B08B
S21400744010BD00BF0080E00F01F0D6BD08B501F00A
S214007450C3FD002008BD10B5044644EA010313F03E
S2140074600303084609D1934201D1002010BD54F809
S214007470231040F823100133F5E7214692002EF042
S21400748005FAF2E710B504462EF01AFB431C15D099
S214007490B0B90C4B20469B680A3303F01F02012349
S2140074A0934023F003032344984201D1002010BDEB
S2140074B050F8042B0132F7D00348F8E70348F6E704
S2140074C00348F4E70080E00F0EE000F021E000F053
S2140074D024E000F008B501F0ABFA014B186008BDD7
S2140074E0F01E0020014B186801F0A6BAF01E00201E
S2140074F00A460139014402F08DBB000038B141B1A3
S214007500013AB2F5006F044838BF002070470348C0
S21400751070470148704700BF037000F0027000F02B
S21400752038B504460D4601F08AFAA3889BB223B903
S2140075302B6001F08AFA064838BD142263889BB295
S21400754002FB034408342C6001F07FFA0020F3E7C6
S2140075500B7000F0F7B504461646019101F06FFA7D
S214007560A388E2889BB29A420546019906D8002372
S214007570336001F06AFA124803B0F0BD1427208881
S2140075803A4680B207FB004008302EF07FF9238889
S214007590E2889BB207FB0343083333602388284600
S2140075A09BB20133B3FBF2F102FB11339BB2238093
S2140075B0A38801339BB2A38001F047FA0020DBE7E3
S2140075C00A7000F0034610B593F836300068022BB8
S2140075D00CD101F0B9FB044630B102F0FBFF2423C6
S2140075E05843B0FBF4F40134204610BD01F0FAFD18
S2140075F0F1E70000104930B50B78104A2BB9C2E904
S2140076000033C2E9023301230B700C4C00232146E1
S21400761051F8045B854208D00133042BF8D10021D1
S21400762054F8043B1BB942F82100002003E0013166
S2140076300429F5D1024830BDB41F0020A41F002045
S214007640027000F010B50446C17F01230422C07EFC
S21400765001F0D2FB94F82010207F0123BDE81040F3
S214007660022201F0C9BB000010B50446FFF768FD12
S214007670002104F10800FFF733FD014620B904F1AC
S2140076800C00FFF72DFD00B1004810BD0E7000F095
S21400769090F836306BB942F21C62042103795B0124
S2140076A003F1804303F570339950022203685A6150
S2140076B07047022B07D10068016C11F0020118BF59
S2140076C0062101F03BBB704790F8363083B90122A3
S2140076D003685A619A69D207FCD541F21C620421FC
S2140076E003795B0103F1804303F5703399507047CB
S2140076F0022B07D10068036C9B074CBF05210921AC
S21400770001F01CBB7047000008B590F8363083B90E
S214007710042203685A619A699207FCD541F21C62FA
S214007720102103795B0103F1804303F57033995010
S21400773008BD022BFCD10068036CDB074CBF05219B
S214007740062101F0FBFA0222014BC3F8C020EFE746
S21400775000D4034070B5054601F071F9AC6B0646DF
S214007760013CAC6374B901F063F90546214601207B
S21400777002F038FB01202146054A02F023FC284689
S21400778001F05AF93046BDE8704001F05EB900BF1E
S214007790405D030013B591F836200B68022A0CBF33
S2140077A01B6C9B690C469B06084606D5FFF7D2FF66
S2140077B0022384F83C3002B010BDFFF703FF00231D
S2140077C00146CDE90033034A234604F1400002F0A7
S2140077D0ADFEF0E79577000070B5044601F02FF98E
S2140077E0A36B054673B901F023F901210646084646
S2140077F002F0F8FA0121074A084602F0E3FB304699
S21400780001F01AF9A36B28460133A363BDE8704064
S21400781001F01BB9405D03007FB5012380F83030CE
S21400782090F8363083B9036824330D4A04900392E7
S214007830002202924A680192012200920A68416977
S214007840C068FFF7CBFC07E0022B02D10368343395
S214007850EBE7002380F8303007B05DF804FB00BF8C
S214007860B979000001232DE9F04180F8313090F815
S214007870363004460E4688B06BBB256801F0DFF84C
S21400788004F1400807460DF11F0140463C3502F062
S21400789031FE40B99DF81F302BB1404602F0CEFDB8
S2140078A02046FFF757FF3846012701F0CEF820465E
S2140078B084F83C70FFF790FF0B4B2A460393002397
S2140078C0029373682169CDE90073A0683368049455
S2140078D0FFF76AFC04E0022BCFD0002380F831309B
S2140078E008B0BDE8F08100BF3579000038B5044621
S2140078F00D4601F0A4F8A3889BB223B92B60BDE81F
S214007900384001F0A2B8142263889BB202FB0343FE
S21400791008332B606388E2889BB20133B3FBF2F135
S21400792002FB11339BB26380A388013B9BB2A3800A
S214007930E5E70000F0B585B0D06A03A91446FFF766
S214007940EFFD06462046FFF73DFE0025014623468E
S214007950CDE90055164A04F1400002F0E7FD154B4C
S2140079609E421FD0039B1D619D6001F068F8039A3C
S2140079700646D76827B1D2E9002329462046B847ED
S214007980E06A03A9FFF7B2FFE06A83889BB263B19F
S21400799003A9FFF7C5FD20460399FFF763FF3046AE
S2140079A001F053F8012005B0F0BD84F83130F6E759
S2140079B0957700000B7000F073B5906A01A9144625
S2140079C0FFF7AEFD364B984231D094F83600019B57
S2140079D000283AD12268916C11F400712AD03149FE
S2140079E0986019614FF4007302F50052936401F039
S2140079F026F801990546CE6836B14A688B68204657
S214007A00D31A0A680969B047A06A01A9FFF76EFF92
S214007A10A06A83889BB2002B37D001A9FFF780FDB0
S214007A2020460199FFF7F8FE284601F00EF80120DF
S214007A3002B070BD906CC50523D51B4899601861CF
S214007A4002F500524FF48073D0E7022819D122685D
S214007A50516C11F4007109D0124902F500521961F7
S214007A60002199604FF400735364C0E7506CC00562
S214007A7007D50D489960186102F500524FF48073DF
S214007A80F2E700221A619A60B1E784F8303094F881
S214007A903530032BC8D02046FFF7FAFDC4E700BFF9
S214007AA00B7000F00D7000F00C7000F02DE9F04146
S214007AB004465B4F88B001AE0D460FCF0FC697E861
S214007AC0070086E80700002C00F0A88025B9554E70
S214007AD0304608B0BDE8F0815C22002120462DF03B
S214007AE0FCFE00232046A363FFF784FD064600281D
S214007AF0EED184F835002B6884F8360023602A7BA4
S214007B002271012284F83C20474A93427BD12823E5
S214007B10A384464B23614FF4802300264FF00508CC
S214007B206361D5E90723A26216805680968084F8A2
S214007B303060E3621E805E809E806B6884F83160F1
S214007B400393EB8984F83360ADF814302B8A012157
S214007B50ADF81230AB7C3A208DF81030EB7C8DF807
S214007B6011808DF8163000F067FAA08C012100F025
S214007B7063FA286801A98DF8046001F091FB1422CD
S214007B802B7B03FA08F303F1804303F57033C3F845
S214007B901C262E7AA87A46EA0042C3F83426697A6A
S214007BA0EA7A41EA0247C3F82C76217784F8202047
S214007BB0E676E0776B7D20466377AB7D84F82130F0
S214007BC0EB7DA3772B7E84F82230FFF73BFD00F099
S214007BD036FF4FF0FF320746286800F500539A64D8
S214007BE02B7D032B0CBF4146042101F01CFB4FF4F8
S214007BF040622B6820465A61FFF736FD0646384637
S214007C0000F023FF64E70A4A93427FF460AF29231B
S214007C10A384084B23614FF4A0237EE7064E57E764
S214007C20485D0300037000F000C005400200040039
S214007C300000064002000500027000F090F83630A2
S214007C4013B9036898697047022B06BF0368186C5F
S214007C5000207047F0B587B005461646FFF74EFC85
S214007C600446B0B904930C4BCDE901166A46A86ADF
S214007C7001A903960593FFF76DFC044648B995F8ED
S214007C80303033B92846FFF71FFD28460099FFF726
S214007C90C3FD204607B0F0BD017000F0F0B587B018
S214007CA004461646FFF72AFC054658BB0493194BB4
S214007CB0CDE90116059394F8363003962BBB23685E
S214007CC09B6903F0020313B92046FFF71DFD6A46C1
S214007CD0E06A01A9FFF73EFC054698B994F83130F2
S214007CE083B900F0ACFEE36A06469B889BB233B1CC
S214007CF020460099FFF7B6FD012384F8343030465D
S214007D0000F0A3FE284607B0F0BD022BDCD12368A6
S214007D101B6CD6E7017000F04FF04023D3F88420A8
S214007D20D206FBD4D3F88400C0F38110704700005D
S214007D3038B5104B0546D3F820310C4603F0030344
S214007D40022B0BD0032B0DD0012B0FD1FFF782F89F
S214007D50052305B1286004B1237038BDFFF7B0F8DD
S214007D600323F6E7FFF7C4F80223F2E700231846DA
S214007D70EFE700BF0080004073B50D4600210E4BB4
S214007D800191D3F88041064604F00304012C09D083
S214007D90022C0CD00C460EB1019B336005B12C7042
S214007DA002B070BD01A8FFF7C3FF0F24F3E7FFF78B
S214007DB09FF80190EFE700BF0080004038B5174BF2
S214007DC00546D3F824310C4603F00703013B052B88
S214007DD020D8DFE803F0030F171B0B13FFF73AF862
S214007DE0052305B1286004B1237038BDFFF732F8CB
S214007DF00623F6E7FFF764F80323F2E7FFF760F8D9
S214007E000423EEE7FFF774F80223EAE7FFF76EF8BD
S214007E100723E6E700231846E3E700BF008000409C
S214007E2038B5104B0546D3F840310C4603F0030333
S214007E30022B0BD0032B0DD0012B0FD1FFF75CF8D4
S214007E40092305B1286004B1237038BDFFF75AF83E
S214007E500823F6E7FFF753F80B23F2E7002318464C
S214007E60EFE700BF0080004038B5134B0546D3F857
S214007E7000320C4603F00703013B032B18D8DFE85B
S214007E8003F0020A0E12FFF737F8092305B128603F
S214007E9004B1237038BDFFF735F80823F6E7FFF77F
S214007EA02EF80B23F2E7FEF7F5FF0E23800AEDE728
S214007EB000231846EAE700BF0080004038B5104BA4
S214007EC00546D3F840320C4603F00303022B0BD0D2
S214007ED0032B0DD0012B0FD1FFF70EF8092305B1A8
S214007EE0286004B1237038BDFFF70CF80823F6E7C6
S214007EF0FFF705F80B23F2E700231846EFE700BF6D
S214007F000080004038B5104B0546D3F860310C466B
S214007F1003F00303022B0BD0032B0DD0012B0FD144
S214007F20FEF7EAFF092305B1286004B1237038BDC7
S214007F30FEF7E8FF0823F6E7FEF7E1FF0B23F2E77C
S214007F4000231846EFE700BF0080004010B40D4C39
S214007F500B46D4F8204204F00304012C0AD0022C6D
S214007F600CD008B1002101600BB100221A705DF838
S214007F70044B70475DF8044BFFF7DABE5DF8044B20
S214007F80FFF74EBF00800040B0F5207F1FD009D815
S214007F90B0F5007F15D003D868B1B0F5C07F0AD021
S214007FA000200CE0B0F5607FFAD10B4BD3F88000D0
S214007FB0C0F3011003E0084B186FC0F30330013024
S214007FC07047054BD3F89000C0F30460F7E7024B08
S214007FD0186FC0F38020F2E7008000404FF40032B4
S214007FE038B50E4B05469A660020FFF7CDFF41F6E2
S214007FF071320B4B6843DC690A4DDA639A68A84213
S21400800004F4803422F4401203D9012918BF42F444
S21400801080129A600CB10022DA6338BD00900040EE
S21400802000000340005A620208B5FEF745FFBDE8AF
S21400803008400021FFF7D2BF420910B510D0012A30
S21400804010D00B4B0B4C022A18BF234600F01F0023
S21400805051B103F58053012202FA00F0186010BDFA
S2140080601346F3E7044BF1E703F50053F3E700BFCD
S2140080706880004060820040648000401FB5002396
S21400808080280446029372D02BD8002873D0A0F123
S2140080902004A3B2412B32D8412C30D8DFE804F0BC
S2140080A06B6E6B6E7D7D7D7D6E6E873C9E623C6EDC
S2140080B06E6E2F2F2F2F2F2F82546E6E6EA8A36EEC
S2140080C02F2F2F2F2F2F2F2F2F2F2F2F2F6B2F6B43
S2140080D06B6B7D2F2F2F2F2F2F2F2F2F2F2F2F2FE5
S2140080E06B6BB0F5806F58D021D8B0F5007F4FD0BD
S2140080F008D8B0F5807F5FD0B0F5C07F3BD002983F
S21400810004B010BDB0F5607F42D0F8D8B0F5207F3F
S21400811034D0B0F5407FF2D1FEF7BCFE02464FF4F5
S2140081202070FFF731FFB2FBF0F0400821E0B0F519
S214008130C06F53D00DD8B0F5A06F33D0B0F5B06F88
S21400814035D0B0F5906FDAD1002102A8FFF736FEE1
S214008150D5E7B0F5E06F46D0B0F5F06F48D0B0F593
S214008160D06FCCD1002102A8FFF77EFEC7E7FEF74E
S21400817077FE0290C3E7FEF78DFEFAE7FEF78AFE6B
S21400818002464FF42070FFF7FFFEB2FBF0F0F0E778
S214008190FEF766FE02462046F5E7002102A8FFF736
S2140081A0C7FDACE7002102A8FFF7D0FEA7E7002135
S2140081B002A8FFF7E1FDA2E703934FF0E0231B6957
S2140081C05B0705D5FEF766FE0390039B029396E7D2
S2140081D00DF1070103A8FFF723FEF6E7002102A82A
S2140081E0FFF71EFE8BE7002102A8FFF767FE86E773
S2140081F0002102A8FFF786FE81E7000008B5802070
S214008200FFF73CFF034B98429EBF4FF48032024B71
S2140082101A6708BD005A620200A00040002307B596
S214008220B0F5807F8DF802307FD02AD8382800F04D
S214008230A0800CD8243883B2092B10D809280ED871
S214008240DFE800F06D6D6D6D0D0D670D39875228F6
S21400825065D009D83D283ED03E2800F090809DF895
S214008260020003B05DF804FB8028F8D1474B1B6F73
S21400827003F00703013B032BF1D8DFE803F0484483
S2140082804276B0F5D06F64D01BD8B0F5A06F70D032
S2140082900BD8B0F5806F42D0B0F5906FDFD10020DC
S2140082A00DF10201FFF78AFDD9E7B0F5B06F30D0C7
S2140082B0B0F5C06FD3D100200DF10201FFF7B0FD7D
S2140082C0CDE7B0F5006FEAD00BD8B0F5E06F56D02A
S2140082D0B0F5F06FC3D100200DF10201FFF712FEDA
S2140082E0BDE7B0F5086FBAD1284BD3F8003103F0DC
S2140082F00303022B33D0032B35D0012B37D1FEF7E7
S214008300DFFD032300E005238DF80230A7E70223F4
S214008310FAE700200DF10201FFF72EFD9FE700208F
S2140083200DF10201FFF704FD99E701934FF0E023FA
S2140083301B695B0707D5FEF7ADFD0C238DF80330F0
S2140083409DF80330E0E70DF1030101A8FFF768FD93
S214008350F6E700200DF10201FFF786FD7FE7FEF746
S214008360D1FD0823D0E7FEF7C1FD0723CCE70123A4
S214008370CAE700200DF10201FFF7E8FD6FE70020D5
S2140083800DF10201FFF79AFD69E700BF008000408B
S21400839008B5FFF743FF082812D00938C0B20128F5
S2140083A011D84FF40012094B4FF6FF705A6603F5CA
S2140083B0D8335B6A13F0010F18BF4FF4FA7008BD8C
S2140083C0034B1888FBE74FF6FF70F8E70090004075
S2140083D06C0C002070B504468020FFF71FFF0328B2
S2140083E07CD04FF40022424B42495A6645F60E03B3
S2140083F00222C1F88030404B9A62012203F5805376
S2140084009A628A6D12F48032FBD1637820781B055D
S21400841043EA0063A079257C0343E078667C43EA60
S2140084200043207943EA0033607943EA80130B6106
S2140084308B69E07A03F000430343E07943EA806304
S214008440207A43EA0063607A43EA0043A07A43EA6C
S21400845000238B61637B096A002B18BF0822207BF0
S21400846021F00D0143EA010343EA800342EA0302D6
S214008470204B1A62A27B4FEA421230D1986AE17B07
S21400848020F0330042EA0112024342F001029A62EF
S2140084901A4A996D32EA0101FBD1022216498A6214
S2140084A01A659A6D5200FCD41869A27820F4700000
S2140084B040EA02504FF0004218610F4B9A611DB916
S2140084C0022203F580539A6216B901220C4B9A6277
S2140084D0A37C1BB1074B0B4AC3F8802070BD996A7A
S2140084E021F0330131430A4342EA4502EFE700BF79
S2140084F00090004000C0004000D000400300014053
S21400850000E00040F1A7FFFF014B93F90000704721
S214008510B51F0020F0B54FF480061B4A41788478DA
S214008520C378057856664FF4D156022702F5B8325E
S2140085305662164E4F2977604FF0010728BF4F212D
S21400854006F5805677601669F603FCD441EA0521E5
S21400855051611B01417943EA04230B43017943EA45
S21400856041039360C37981791B0143EA4113417A41
S2140085700B43017A43EA41035360837A13B16FF4E5
S214008580D1535362F0BD00BF00900040001002407F
S214008590014B1880704700BF6C0C00204FF400128F
S2140085A008B5184B5A660223174A5360936813F4AB
S2140085B08033FBD1012822D1FEF782FC134B984270
S2140085C015D003F5122303F5F863984213D0104B29
S2140085D000EB8002400AB3FBF0F0520A0A4BDA6264
S2140085E0012218635A620022074B5A6008BD45F6FE
S2140085F07A10084AF2E745F61A00074AEEE7536291
S214008600F1E700BF009000400040024000F0490241
S21400861064666666D8B80500BBCF05000029CCBFE7
S21400862001210021FFF7DABCB0F5207F10B50C461B
S21400863042D008D8B0F5007F33D003D888B1B0F563
S214008640C07F0ED010BDB0F5607FFBD11F4B013C44
S214008650D3F8801021F0300141EA0414C3F88040BA
S214008660F0E7FFF7E1FC00F035F84FF48031184AE8
S214008670164B1167196F013C21F4704141EA04342E
S2140086801C67FEF707FC0446FFF746FBC0F1020135
S2140086902046FFF7C3FF00F023F8BDE81040FFF7C1
S2140086A0ADBD0A4B013CD3F8901021F0F85141EAD9
S2140086B00464C3F89040C5E7044B013C196F21F4ED
S2140086C0806141EA84241C67BCE700BF008000404C
S2140086D00090004002214FF42070FFF7A5BF000075
S2140086E008B54FF4C070FFF7C9FCBDE80840044960
S2140086F088428CBF022101214FF42070FFF794BFFF
S21400870080F0FA02B0F5807F70B50C4600F0FE806F
S2140087102AD8382800F0528111D8243883B2092B81
S21400872016D8092814D8DFE810F0E000E000E000D2
S214008730E00013001300D10013004800380152284F
S21400874000F0D38005D83D2853D03E2800F047815E
S21400875070BD8028FCD18B1E052B00F2B480DFE8AC
S21400876003F0AF9DB26DB2ACB0F5D06F00F01581DE
S21400877034D8B0F5A06F00F0218117D8B0F5806F1F
S21400878000F0B380B0F5906FE2D1023CE4B2052C65
S2140087908CBF00219A4B9B4A98BF195DD2F82431B2
S2140087A023F007030B43C2F82431D1E7B0F5B06FCE
S2140087B000F08C80B0F5C06FCAD1083CE4B2032C40
S2140087C08CBF0021904B8F4A98BF195DD2F840317C
S2140087D023F003030B43C2F84031B9E7B0F5006F4E
S2140087E0D3D017D8B0F5E06F00F0F980B0F5F06F91
S2140087F0AED1083CE4B2032C8CBF0021834B814AE7
S21400880098BF195DD2F8603123F003030B43C2F81A
S21400881060319DE7B0F5086F9AD1CC1EE4B2052C06
S2140088208CBF00217A4B774A98BF195DD2F8003189
S21400883023F003030B43C2F8003189E70025022624
S2140088400121022000F066F9FFF7EEFBFFF742FF7A
S2140088504FF480316F4B6B4A1967136F23F0070391
S21400886033431367FEF716FB0646FFF755FAC0F1CB
S21400887002013046FFF7D2FE0121002000F08AF9FF
S214008880FFF72EFFFFF7BAFC002D7FF461AF032C35
S2140088907FF45EAF0122604B9A6259E74FF40022E4
S2140088A05C4B03265A66012203F540539D6A03F586
S2140088B08053C5F340059A62C2E700250426BFE749
S2140088C000250126BCE700252E46B9E7022C03D07A
S2140088D0A4F10F00444244414A4AD2F8803123F0C2
S2140088E003031C43C2F8804132E7023CE4B2032C87
S2140088F08CBF0021494B434A98BF195DD2F82031FE
S21400890023F003030B43C2F8203121E7A1F108044A
S214008910082C3FF61DAF01A353F824F04189000050
S2140089204189000051870000418900006F890000DE
S21400893051870000518700005187000041890000E0
S2140089404FF480322F4B3649586E03F580535A66E3
S2140089500B6A43F001030B62C1035CBF314B5A66DE
S2140089604FF0E022136923F004031361F0E64FF49E
S2140089708032244B2A49586E03F580535A660B6A98
S21400898023F001030B62C3035CBF264B5A664FF00D
S214008990E022136943F00403E7E7083CE4B2062C40
S2140089A08CBF0021204B174A98BF195DD2F80032C1
S2140089B023F007030B43C2F80032C9E60F2C0CD095
S2140089C0102C14BF002102210E4AD2F8203223F0C8
S2140089D003030B43C2F82032BAE60121F4E7083C51
S2140089E0E4B2032C8CBF0021104B064A98BF195DD9
S2140089F0D2F8403223F003030B43C2F84032A7E616
S214008A008C5D030000800040885D0300885D0300E5
S214008A10995D03000090004000E00040845D030084
S214008A2000C0074000A00040925D0300885D030080
S214008A30EFF3108072B6704700B962B67047EFF376
S214008A401180302383F31188704780F311887047B4
S214008A50054B420953F8223000F01F0023FA00F0BD
S214008A60C04300F00100704700E100E0194B10B56C
S214008A701B6873B3184A5268012A2AD0174A802006
S214008A80C2F80031FFF7CAFB05281FD14FF4C070AB
S214008A90FFF77AFA0128044604D102214FF4C07089
S214008AA0FFF7C2FD07220E4B1A610122A3F5805381
S214008AB05A60094A1369DB07FCD5012C09D1214607
S214008AC0BDE810404FF4C070FFF7AEBD0122054B65
S214008AD05A6010BDB81F002000C001400080004052
S214008AE000E0014000D001404FF04022536F417833
S214008AF023F4407343EA012353677047FFF7B6BF7A
S214008B004FF04022D36E017923F030030B43D36637
S214008B1070477047F8B504464FF04023D3F88420DA
S214008B20D106FBD4D3F88430C3F381139C422DD0F6
S214008B30FEF796F9012C064602D12146FFF76EFD98
S214008B40FFF776FF4FF00072114B07465A66204635
S214008B50FFF7DFFF4FF480634FF04025621E93401F
S214008B602B676B6E9A0103D4D5F884309B060AD522
S214008B703846FFF761FF022C08D13046BDE8F840C2
S214008B800021FFF74BBDD5F88430EAE7F8BD00BFFB
S214008B900060004007B518B90191FEF761F9019928
S214008BA0064B1B7843B1064B984205D8012003B00C
S214008BB05DF804EBFFF7AEBF0220F8E7BC1F00200D
S214008BC0005A62020278034B012100201A70FFF758
S214008BD0E1BF00BFBC1F00204FF0004210B50124CB
S214008BE04AF6CD31144B5A66144A03F50B235460EB
S214008BF05A6C1964224078B9996811F0010F10492F
S214008C0003D08C60D86AC007FCD501234B6012B134
S214008C100C4B0D4A1A6410BDD96A0907FCD42021F2
S214008C20074B59620121A3F58053996005494B6AA9
S214008C309B06FCD5EBE700BF0090004000500940C3
S214008C4000600940004009403254FFFF4FF00042E8
S214008C5038B5184B184C5A66012203F50C235A6097
S214008C604AF6CD33656C236443781540934013432E
S214008C704FF04022D363A368827823F0740343EA5C
S214008C800213C278002A14BF042200221343A360F2
S214008C900279837943EA022323614279C37943EA5E
S214008CA0022363610078FFF797FF0DB1034B23643F
S214008CB0012038BD00900040004009403254FFFFBC
S214008CC0C36C0B42FCD1704708B543680246DB070D
S214008CD014D50A2350210363FFF7F2FF136C99079C
S214008CE0FCD1936A012110469362FFF7E9FF136CEB
S214008CF01B0604D4012302F50052536008BD536BD3
S214008D00F5E738B50C460121024600F58053596058
S214008D1004F00F0540F2FF71FFF7D2FF78210563DC
S214008D20FFF7CEFF04F00103610748BF43F00203DC
S214008D30116C01F003019942FAD138BD09B9FFF769
S214008D40C3BFFFF7DEBF00002DE9F04104461F4811
S214008D501F4F84420CBF38200020FFF78FF9A36A0C
S214008D60A4681F4004F0E004402C0DD004D834B3AF
S214008D70202C27D0002020E0602C25D0802CF9D194
S214008D804FF4807600241BE080260024032307F59A
S214008D9080775F4300233A4619462CF087FB02FB98
S214008DA004F500FB06F806FB0355A2FB06010023AC
S214008DB03A4629442CF07AFB4044BDE8F081102660
S214008DC00123E4E72646DDE74026DBE70000034A0A
S214008DD0F8FF7F0070B5054614460E46FFF728FEDE
S214008DE0296881EA040202EA06044C402C60BDE8C9
S214008DF07040FFF721BE0000F8B504460D461F463A
S214008E0016464AB101238B403021184A01FB002246
S214008E10F7B141F2100153503023072D4FF00F01E8
S214008E2004FB03F317D8A80006FA00F281401048A6
S214008E301844FFF7CFFF56B9012130230B4801FA3B
S214008E4005F503FB040077B141F21003C550F8BDE9
S214008E5042F21001DFE7A5F10800800006FA00F2F2
S214008E6081400448E4E742F21003EFE700C0034005
S214008E7004C003400CC0034010B501210446202066
S214008E80FFF7DAF801212120FFF7D6F80122114B6F
S214008E905A60227812069A606178A27842EA014205
S214008EA09A61FF229A6200229A631A644FF0004287
S214008EB05A654FF0FF324FF4001103F500531A6560
S214008EC0054AC2F88011E3781B01DBB282F815333D
S214008ED0116010BD0000044000E100E02DE9F04103
S214008EE001250C46C3B2DFF888E0D1F800809D402B
S214008EF08F7ACB7A94F80DC0097BCEF850500EF5D9
S214008F00005E4EF820804FF0300E184E1B050EFB0C
S214008F10006043EA074343EA415322F00302C0F8E5
S214008F2060C0C3650267FFF78AFD736D2B437365E8
S214008F30237A13B1336C2B433364637A13B1B36B68
S214008F402B43B3632279A37943EA0243084A936129
S214008F506179E37943EA014306498B61034B556324
S214008F609D64BDE8F041FFF770BD00BF00000440FF
S214008F70002004400010044010B50124C0B2844014
S214008F80FFF75DFD044B5A6D22EA04025A659C62A7
S214008F90BDE81040FFF759BD00000440F8B50125B4
S214008FA0C3B204469D40FFF74AFD3022094B1E6DB2
S214008FB05F6B02FB04335C6EFFF747FD3D4206D154
S214008FC0C4F30A1008B9354200D10130F8BD0020BC
S214008FD0FCE700BF000004404FF40032054B9A66E1
S214008FE041F6713203F51C33DA63012203F50053B0
S214008FF0DA6070470090004041F671320121064B5E
S214009000DA6303F50052D1600022DA634FF40032CF
S214009010A3F518339A667047000003404FF090435C
S2140090205A6812B19A6A002AFAD17047CB784A7801
S21400903010B55B010C7843EA82030A79234343EABE
S21400904002130C22424302F190421363012C02BF2A
S2140090508A78024B43F8202010BD00BFE88003400A
S21400906008B54FF090435A6802B960B15B680BB11F
S214009070FFF7D4FF4FF0904130B10120074B586006
S214009080FFF7CCFFC86008BDFFF7C8FF0223CB6020
S214009090FFF7C4FF0122024B5A60F4E700100048B5
S2140090A0002000484FF090435B6870B50BB1FFF7A7
S2140090B0B5FF0121104B4578596083780679002B5F
S2140090C0C37814BF02240024002B14BF04220022FD
S2140090D04379DB0043EA06132B43234313434FF045
S2140090E090429360054B59600378002B14BF0B46E3
S2140090F00223D36070BD00BF002000480010004867
S2140091004FF48032064B5A6603F5E6235B69C3F3D9
S2140091108512827003F03F021B0B4270037070478B
S2140091200090004070B5054616461C4621B94FF41F
S2140091302070FEF7A3FF0146402C1BD003D8DCB1FD
S214009140202C1BD070BD602CFCD1042303FB06F240
S214009150560806EB4113B3FBF2F3094A203B02EA3A
S214009160C303AA6822F06002AA60AA681443AC602F
S214009170EB61E7E70623E9E71023E7E70823E5E7DF
S214009180F8FF7F002DE9B841154F15460F40FAB994
S214009190202B20D0402B20D0002B14BF402410249E
S2140091A0012307F580775F4300233A4619462CF0E3
S2140091B07DF9554300FB04F804FB0351A2FB0404AD
S2140091C000233A4621442CF071F94044BDE8B881AA
S2140091D080240025E4E71C46E2E780240323E0E73A
S2140091E0F8FF7F0070B5044685684FF42070FEF7E0
S2140091F045FFA36805F00102E16903F06003BDE8DE
S2140092007040FFF7BFBF38B50546144621B94FF486
S2140092102070FEF733FF014601396400B1FBF4F11C
S2140092200902E96138BD012200F580535A60CB433C
S214009230934003F00A034361416111B900F5005001
S21400924042607047012200F5805310B55A6040F620
S214009250AA6341F20502436100230E498360C36599
S214009260C26000F500520361C361C36491640A4999
S2140092708365884202D0094CA04207D18842036524
S21400928002D0064B984201D1002343650123536068
S21400929010BD00BFFFFF010000C0054000000640F3
S2140092A070B50D46FFF7CEFF012300F580567360BC
S2140092B0AB7C04461BB1836843F080438360EB7C41
S2140092C05BB1354A2B7D944245D1A2F51032C2F8E7
S2140092D08C31E36D43F08003E3652A8A6B7B20467E
S2140092E01343EA891343E3602B7BD5E90112FFF7AA
S2140092F019FF6B7D1BB1A36843F48033A360AB7D7D
S2140093001BB1A36843F40043A360EB7D2A7E1B07D2
S214009310120502F4E00203F0E0431343A365697EFE
S2140093201D4A8B1E012B1D4B1FD894421BD002F5E5
S214009330804294420CBF01224FF0FF3203EB4213EF
S214009340022041F21C620329985020D10423F365C1
S2140093502B78636170BD124A944204BFA2F5203296
S214009360C2F89C31B5E70022E8E794420DD00C4ADB
S21400937094420CBF01224FF0FF3203EB421302204F
S21400938042F21C6201299850DFE70022F5E704222A
S21400939004F50053DA65DBE700C0054000C0034073
S2140093A00000064038B50D46FFF74CFF0122A97BAA
S2140093B000F580535A602A8A8368002914BF4FF448
S2140093C08061002142F0010213432A7D0B43002AEC
S2140093D014BF4FF000520022836083680446134394
S2140093E08360AB7C5BB11D4AEB7C90422DD1A2F52D
S2140093F01032C2F88C31E36D43F08003E3652B7BBB
S2140094002046D5E9011243F48053E360FFF7FBFEE4
S2140094106B7B0BB1102363616B7D1BB1A36843F4B8
S2140094208033A360AB7D1BB1A36843F40043A36005
S214009430EB7D2A7E1B07120503F0E04302F4E002F0
S2140094401343A3652B78636138BD054A904204BF79
S214009450A2F52032C2F89C31CDE700BF00C005401F
S2140094600000064083695A06FCD5C16383699B06E3
S214009470FCD5406AC0B2704738B50446054D25F0A5
S214009480FBFA0FCC0FC594E8030085E80300002024
S21400949038BD00BFC01F002047F6FF739A42F0B5E4
S2140094A063D0022963D8334BCF0003EBC10013F817
S2140094B031108478012913D10025C3781B1B9D42E7
S2140094C002D3E018C0B2F0BD591B4668A3EB5101A9
S2140094D036F911609642D4BF0D4601F1FF33EEE730
S2140094E040680028EFD0B0F90010914204DBB0F9D4
S2140094F002109142B8BF114682883B44FF2A19BF2A
S214009500C8222826B0F90620B0F90860A2EB0102AE
S2140095100CBF0125002592FBF6F25F782A447B1EDD
S214009520934228BF13464FF47A7E00EBC305AE681D
S214009530EA88AC4611FB02621E4622EAE27201335A
S21400954002F5FA729F42B2FBFEF204D9BCF80CC0D8
S21400955008359445EBD200EBC6008088904228BFC1
S2140095601046A04238BF2046ACE7FF20ABE70020FD
S214009570A9E700BFC01F00200229F0B553D82B482A
S21400958000EBC10410F83110636801290FD1E078B0
S214009590A478904294BFC4EB0001C4EB0201001B08
S2140095A0CAB28242C8BF002233F91200F0BD002BB7
S2140095B039D0A178914202D3B3F90200F6E7E178F8
S2140095C0B3F900009142F1D999886478A1F1FF06B9
S2140095D0013C714203F10405E4B2714103F10C074A
S2140095E01FFA82FCCEB2B44216D805EBC1014FF486
S2140095F07A756A43B1F902404968521A04EBD4718D
S21400960002EB610292FBF4F29042CFDBB3F9020068
S2140096109042CBDC10B2C9E737F831E04E1CE64585
S214009620E3D33146DEE70248C0E700BFC01F002094
S2140096300080FFFF08B50448FFF71EFFBDE808409E
S214009640012025F03FBA00BFA05D030007B56B46BA
S214009650054A1068516803C36846FFF7F7FA00200A
S21400966003B05DF804FB00BF245E03004FF0402209
S21400967013B50024536F684643F001035367009404
S2140096808DF80440FFF73CFA204602B010BD0000FB
S21400969070B586B001AA1546184B03F1100614469D
S2140096A018685968083303C4B3422246F7D11988AC
S2140096B09B782180A370124BD3F84C21120314D44C
S2140096C0D3F85041E4B28DF80E40FEF71DFF20445B
S2140096D080F308008DF80D000A48FDF7F7FB2846D2
S2140096E0FEF778FE002006B070BD074B1C884FF6CC
S2140096F0FF739C4208BF7824E5E700BF2C5E03009A
S2140097000080E00F00F049020001E00F08B50120DC
S214009710FEF744FF002008BD1FB50B4A01AB1068DA
S214009720516803C31189927A19809A70252301A87B
S2140097308DF80530FEF7EEFE6420FEF729FF0020C8
S21400974005B05DF804FB00BF3F5E03006FF0040247
S214009750502110B50A480B4C12F0800FD3B21BBF35
S21400976003F00F03043BA3181B1802F101020CBF01
S21400977083F800131976402AEED1002010BD00BFF2
S21400978000ED00E000E100E000F07AB838B500F047
S2140097901BFE0446E0B900F01DFF4FF4167343436A
S2140097A00C4803F5742303F23F23B3FBF0F30A4A95
S2140097B00A4913600A220D680948013A12F0FF02AE
S2140097C040F8043BF9D103EBC3022B4413440B606F
S2140097D0204638BD40420F0014200020E01F002025
S2140097E0E41F002070470000012208B5034B1A70E2
S2140097F000F0E3FE024B186008BD00BFDC1F00202F
S21400980010200020F8B5144C237823B300F0D5FEC2
S214009810124B134D1B68134EC01A012838BF012087
S214009820114B124F18602B7856F8232046F8230069
S214009830111A3A680E48521A0A213A600932B2FBE7
S214009840F1F20133DBB20260B3FBF1F201FB12333B
S2140098502B7000232370F8BDDC1F00201020002092
S2140098600C200020E41F0020D81F0020E01F00204E
S21400987014200020014B1868704700BF14200020F9
S21400988020234FF400220A4981F82C33094B5A66EC
S214009890094A03F5A040426702674FF4805003F57B
S2140098A040530344C1F8840148605A67704700BFBC
S2140098B000E100E000900040010000A0054B064AD1
S2140098C01B78916DC90700D513B10028F9D17047F0
S2140098D0012070472C20002000C000402DE9F843EE
S2140098E0874B1E6F9D6A9C6AF00705F0020504F020
S2140098F001044CD501278349834A91F80090DFF88C
S21400990028821767B9F1000F00F0ED80002008707C
S21400991098F80010B94200F2E18002219762A2F5A1
S214009920805291629A6DD103FCD478495A6B0968CB
S21400993022F470620A435A637548764A9969006849
S214009940126821F47F01024321F47F410A439A61A1
S2140099507148724A19691268006821F47F6121F023
S2140099600F0102430A431A616D499A69096822F099
S214009970FF020A439A610223002D40F0AB80624A40
S21400998093620123002C00F0A780664A936216F0CB
S21400999000527FD04FF0010E5B4F63493A67594A39
S2140099A0574B82F800E00A78DFF864C172440A7008
S2140099B05A6B564902F4706008609869554900F47D
S2140099C07F4008609969DFF8588101F47F01CCF880
S2140099D00010D3F818C05FFA8CFCC8F800C0D3F8A3
S2140099E010C0DFF838810CF47C6CC8F800C0D3F8DF
S2140099F010C0DFF824810CF03F0CC8F800C0C7F890
S214009A0028E04FF0020EDFF81CC1CCF828E04FF03B
S214009A10004ECCF828E0D3F858C01CF4803FFAD1AA
S214009A204FF0004C22F4706242F40072B0F5C84F5A
S214009A30C7F828C05A6302D8B1F5C80F0CD9304A07
S214009A403A499369096823F47F0323F47F4343EA82
S214009A50012343EA01439361294A3549136909689A
S214009A6023F47F6323F00F03880843EA910343EA55
S214009A7080131361936923F0FF030B439361022362
S214009A80002D37D102F5005293620123002C33D00B
S214009A90244A9362002E1BDA4FF000421A4B1849F4
S214009AA01A67244A12789AB101229A620222A3F512
S214009AB080539A628A6DD203FCD44FF000429A61BA
S214009AC0022205B9104B9A620123BCB1154A936273
S214009AD0BDE8F883134A53E70B4A57E7FFF782FEC1
S214009AE0144B1F7053E7FFF78DFE00F03BFA88F823
S214009AF000904CE70B4AC7E7034ACAE7024AE6E784
S214009B0000C000402C20002000E000403020002054
S214009B102820002024200020202000201C200020B8
S214009B201820002000D000402D200020740C0020BB
S214009B30700C00202E200020FFF7D0BEBFF34F8F02
S214009B40BFF36F8F054B5A6A22F480325A62D3F8FD
S214009B50942022F00102C3F89420704700ED00E044
S214009B6070B52548254CFFF7E9FF844208BF4FF043
S214009B708043234A18BF20F01F03D2F8C01018BF36
S214009B80203B21F0FF0141F0A001B3F1005FC2F8D5
S214009B90C0100CD31B4D1C4E296843F00103C2F8BD
S214009BA098100131C2F89C60C2F8A0302960844247
S214009BB010D01448154B0268114923F01F0343F0D8
S214009BC00303C1F89820C1F89C30114B0132C1F84C
S214009BD0A0300260BFF34F8FBFF36F8F0522084B94
S214009BE0C3F894205A6A42F480325A62BFF34F8F09
S214009BF0BFF36F8F70BD00BF200E0020D00F002077
S214009C0000ED00E03420002003000020EF0F0020CD
S214009C10E1FFFF3F10B51446FFF790FF1F2C21D938
S214009C20194A1A4CD2F8C03021F01F0123F47F43A2
S214009C3043F48073C2F8C030C30618BF20F01F007C
S214009C402368114A18BF203020F01F00C2F8983051
S214009C5040F0030041F003010133C2F89C00C2F853
S214009C60A0102360BFF34F8FBFF36F8F0522064B04
S214009C70C3F894205A6A42F480325A62BFF34F8F78
S214009C80BFF36F8F002010BD00ED00E034200020F1
S214009C90BFF34F8F0549064BCA6802F4E0621343D0
S214009CA0CB60BFF34F8F00BFFDE700BF00ED00E0C5
S214009CB00400FA0508B5FFF7EBFF08BD034B1B7859
S214009CC0002B14BF01200220704700BF4C2000204C
S214009CD00329F8B598BF124B05460E468CBF0024E4
S214009CE05C5C032805D8DFE800F002080B0E44F0A1
S214009CF002040C4B1F684FB9F8BD44F00804F8E79F
S214009D0044F02004F5E744F08004F2E77B681A6824
S214009D10144203D0314628465B6898473F68EAE716
S214009D204A5E03004820002038B5104D2B78ABB1B2
S214009D300F4C23781BB100F019FA00232370002083
S214009D4000F036FA0B4C50B100F03CFA002301212B
S214009D5020782B70FFF7BCFF0123237038BD01224B
S214009D60054B1A702278054B1A70F7E7462000203C
S214009D7041200020382000204520002054200020CC
S214009D8070B5FEF755FE124E054633789BB900F0C7
S214009D901BFB044620B12846FEF74EFE204670BD4B
S214009DA000F018FC0B4B186000F0FAF80A48FDF7B4
S214009DB0AFF80A4B1C6000F05DF900F021FA084B82
S214009DC000241860012328463370FEF735FEE5E7C9
S214009DD0422000205020002048200020582000204C
S214009DE03C20002000292DE9F34114BF0121FF216A
S214009DF0254A00F1FF30135C0B4413543AD0234E2F
S214009E003278012A36D9FFF759FF0128044634D89C
S214009E101F4FFEF70DFE3B781BB31E4D2B781BB96C
S214009E2001222A701C4A1370DFF8708098F8003000
S214009E3033B1019000F09AF90023019888F80030B9
S214009E40FEF7FAFD012000F0B3F9FEF7F1FD2B78DE
S214009E502BB1019000F0B6F9002301982B70002377
S214009E603B70FEF7E9FD3078A04203D02146FFF7AD
S214009E702FFF347002B0BDE8F081032AF3D1022828
S214009E80F1D100F0D7F9EEE74C2000203820002072
S214009E9046200020402000204520002041200020B1
S214009EA010B50446FEF7C4FD002C14BF0121FF21A7
S214009EB0064A13780B44DBB21370B3FA83F3BDE89B
S214009EC01040034A5B091370FEF7B6BD4F20002012
S214009ED04E20002068B5FEF7ABFD094B06461B7802
S214009EE0012B04D8FEF7A8FD0025284668BD054BC3
S214009EF01D6800F089F905443046FEF79DFDF4E73D
S214009F00382000205820002007B5FEF791FD01906C
S214009F10FFF70AFF019803B05DF804EBFEF78CBD6F
S214009F2038B541600446FEF783FD054621460448E1
S214009F30FCF7F1FF2846BDE83840FEF77DBD00BFC0
S214009F4048200020054B1B685843054B00F574203D
S214009F5000F23F20B0FBF3F0704700BF5020002017
S214009F6040420F0010B5094B1B786BB1084C2378A4
S214009F7053B100F027F90023064A2370137001231B
S214009F80054A1370054A137010BD00BF3820002024
S214009F9045200020462000204320002044200020AA
S214009FA070B50024054D064E294630460134FCF7B0
S214009FB0B2FF0A2C05F10805F6D170BD5C20002022
S214009FC0AC20002070B5154660B1134B013803EB8A
S214009FD0800671B11148FCF7A2FF014618B90122AC
S214009FE00F4B1A7070BD45603046BDE87040FCF7F8
S214009FF092BF53F82040002CF4D0294660682BF01E
S21400A00039FD08B12468F6E721463046FCF78FFF95
S21400A01021460248E9E700BFB4200020AC2000201B
S21400A020B020002073B5114E04463378834212D018
S21400A03000238DF8043080B102238DF8053001A886
S21400A040FEF752FD0A4D402054B1FFF77BFF2B6808
S21400A050181A2860347002B070BD8DF80500EEE75F
S21400A060FFF770FF2B681844F3E700BF780C00205A
S21400A070C4200020002373B54FF4002401A88DF8F7
S21400A0800430FEF79FFD0120FFF7CCFF3149324B2D
S21400A0900A6F02F007021A60D1F82031D1F82401C5
S21400A0A001F580514C664FF400344C6601F598314A
S21400A0B08969032A00F0070001F0020141D003F08D
S21400A0C003039C1E63426341022808BF43F001035A
S21400A0D02248234D037061B31E4A3BB9D2F80031C3
S21400A0E003F00303591E4B424B410370D2F8003174
S21400A0F003F00303022B26D0032B27D0012B18D105
S21400A100FCF7DEFEA8B1174B411EDC6800230246B2
S21400A11008461946C4F30B04134E013404EB8404BA
S21400A120E4FB06012BF0C2F9FFF70CFF2B6818447E
S21400A13028606420FFF706FF2B681844286002B0EA
S21400A14070BD0123C0E7FCF7DDFEDBE7FCF7CEFEC3
S21400A150D8E700BF00800040BC200020C1200020BF
S21400A160C420002000C0014040420F0038B50C4B10
S21400A1701B786BB10B4C23787BB90B4B0B4D9A6D50
S21400A18012F4803F05D0DB6D9B0702D50123AB623E
S21400A19038BDFFF729FB0123AB6200232370F7E7E6
S21400A1A0C1200020C020002000C0004000D0004099
S21400A1B0034B1B780BB1FFF781BB0120704700BF34
S21400A1C0C120002008B5FEF799FC094A0949136F1B
S21400A1D0096823F007030B431367074B1B7813B17B
S21400A1E00122064B9A62BDE80840FCF753BE00BF4A
S21400A1F000800040BC200020C120002000E000407D
S21400A2004FF4C870FFF79EBE08B5054B187818B116
S21400A210FFF730FB00EBD000024B1B68184408BD6C
S21400A220C1200020C42000200122014B1A70704774
S21400A230C12000207047000010B500F0E3FA0A4C79
S21400A2400A4B19682368C31A01B10BB9206010BD08
S21400A2504A699A423ABF9B1A0022D21A4A6128BF1C
S21400A26000238968F0E700BFCC200020E020002013
S21400A270C38870B504460D463BB9FFF72BFE8542F2
S21400A280064602D2FFF740FE35460F4965610B6869
S21400A290ABB90C60A36011E0AD1A9A681846656108
S21400A2A02AB113465A69AA42F6D950B11A4613463D
S21400A2B08460A36013B15969491B596170BD0020C1
S21400A2C0F0E70C60F5E700BFE020002038B5134D3E
S21400A2D02B685B6993B1124A022014681C4400F094
S21400A2E0C5FA204600F096FA00230E492A680B703D
S21400A2F0D088800709D501230B7038BD022000F0F6
S21400A300B5FA022000F0D6FAEEE79268002AF4D0FA
S21400A31050690344012BEBD9EFE700BFE020002093
S21400A320CC200020D420002070B516469DF81420BE
S21400A330C0E903360271049ABDF8183002600022A4
S21400A340C380826004460D4600F05CFA3044A0618B
S21400A3503DB9E368656113B120462168984796B118
S21400A3603546FEF765FB0646FFF766FF294620469C
S21400A370FFF77EFF054B1B68A34201D1FFF7A6FF40
S21400A3803046FEF759FB002070BD00BFE0200020DD
S21400A39000220C490B687BB183420AD183687AB1EC
S21400A3A0936083681BB15A6941690A445A61002068
S21400A3B070471A469B68EEE70028EFD002207047E9
S21400A3C00B60EEE7E020002070B5FEF738FB144E79
S21400A3D005463478FCB9134B1C60134B1C60134BBA
S21400A3E01C8000F0CDF9012000F040FA00F084FA5D
S21400A3F00F4B0246186020B92846FEF726FB23209E
S21400A40070BD234640F2E7310A482BF04FF80A4B5E
S21400A4101860012333702846FEF717FB0020EFE78D
S21400A420C8200020E0200020CC200020D6200020DD
S21400A430DC20002018FCFFFFD02000202DE9F04192
S21400A4400546F8B1FEF7F4FA0F4F0646FFF7F4FE9E
S21400A4502846D7F80080FFF79BFF044628B1304611
S21400A460FEF7EAFA2046BDE8F081A8453B6803D12E
S21400A47023B1FFF72BFFF2E7002BF0D1022000F00C
S21400A48001FAECE72224EDE7E020002070B586B064
S21400A49015461E460446059180B1FFF7CFFFBDF86E
S21400A4A02C30002202939DF828302046CDE9006328
S21400A4B005992B46FFF738FF06B070BD2220FBE754
S21400A4C0F0B50D4616461F46044685B080B1FFF728
S21400A4D0B5FFBDF82C302A4602939DF82830294651
S21400A4E0CDE9007320463346FFF71EFF05B0F0BDEA
S21400A4F02220FBE738B50C46054698B191B10023FB
S21400A5000B70FEF79CFA0121074B1B680BB12278F3
S21400A5101AB1FEF79AFA002038BDAB4214BF9B680A
S21400A5202170F3E72220F7E7E0200020F0B51F4671
S21400A530002387B00D46164604468DF81730A0B1A6
S21400A5400DF11701FFF7D6FF9DF817207AB9BDF871
S21400A5503430294602939DF830302046CDE900730A
S21400A5603346FFF7E1FE07B0F0BD2220FBE70320ED
S21400A570F9E7F0B51F46002387B00D461646044699
S21400A5808DF81730A8B10DF11701FFF7B3FF9DF84E
S21400A590173083B9BDF834302A4602939DF8303020
S21400A5A02946CDE9007320463346FFF7BDFE07B0C7
S21400A5B0F0BD2220FBE70220F9E738B5FEF73FFAA8
S21400A5C0054600F01FF904462846FEF73EFA2046E8
S21400A5D038BD0000014B1868704700BFDC20002023
S21400A5E00C4B70B51B680D46834211D340F2E73121
S21400A5F000248C462146084B4FF47A721E680023CE
S21400A600E0FB06C160462AF051FF2860204670BD78
S21400A6102120FCE7D0200020DC200020014B186819
S21400A620704700BFD02000200F4B10B51A689AB1B3
S21400A6304FF47A71531E1342A0FB01010ED1B2FAF9
S21400A64082F2C2F11F04531CD243E04001FA03F326
S21400A650184321FA02F20243104610BD00232AF0E6
S21400A66025FF0246F8E700BFDC200020C2072DE9E0
S21400A670F34704460BD53F4A138801339BB2138039
S21400A680FFF7DAFD3C4B1B680BB1FFF71FFEA30775
S21400A6906DD5FEF7D4F9002605463746FFF7CCFD04
S21400A6A0B146DFF8D480D8F800400CB163698BB1AE
S21400A6B00022324B012F1A7002D1022E08BF1F70E3
S21400A6C0002C44D0FFF702FE284602B0BDE8F04753
S21400A6D0FEF7BBB923461A792179914288BF1C46FA
S21400A6E09B6813B15A69002AF5D02846FEF7ADF9E3
S21400A6F0256985B300F086F8A269861AF317B54275
S21400A70079EB030328DA23691344A3610123226942
S21400A71082B17BB9A91B0191FEF791F98246019996
S21400A7202046FFF7A5FDA369226950461344A3619E
S21400A730FEF78BF9E368E688013713B120462168F7
S21400A7409847FEF77CF90546FFF776FDABE7022053
S21400A75000F098F8B8E72E46FEF771F982462046D4
S21400A760FFF716FE5046FEF770F90023CFE702B05B
S21400A770BDE8F087D6200020E0200020D82000206A
S21400A7801FB500241C4B012118689A880290D3F844
S21400A79006009B7A00903E20ADF80C208DF8043021
S21400A7A0FDF74AFC02A88DF808408DF80C40FEF72D
S21400A7B079FC694601208DF80040FEF737FC4FF023
S21400A7C0904240F2FF31936923F47F7323F0030332
S21400A7D093610A4B5961936A13F00803FBD1136225
S21400A7E00120FEF73DFC4FF48052054BC3F8802154
S21400A7F01A6004B010BD00BF4E5E03000020004883
S21400A80000E100E04FF090439A6A1207FCD4186A01
S21400A810704700004FF09042936A1907FCD4136A01
S21400A820116C5269520604D4CA1A032A01D89942F6
S21400A8300ED1C21A022A98BFD81CB0F1FF3F38BF0B
S21400A84001384FF0904318649A6942F040029A61CA
S21400A850054A13783BB14FF09041CB6B43F00203AF
S21400A860CB63002313707047790C002082074FF0EB
S21400A870904200F00103916948BF43F040030B4348
S21400A88093617047820700F001030AD50121084A48
S21400A89043F0400311704FF09041CA6B22F0030260
S21400A8A0CA634FF090418A6922EA03038B617047BE
S21400A8B0790C0020830742BF4022014B5A61704743
S21400A8C00010004810B5FEF7BAF84FF09043044663
S21400A8D05B695A06074A03F0010003F0510348BFBC
S21400A8E040F002005361FFF7C1FE2046BDE810406D
S21400A8F0FEF7ABB8002000483E20FDF7BFBB08B50A
S21400A900FBF716FDFBF74CFDFBF751FDFBF75CFD77
S21400A910BDE80840FBF75FBD08B5FBF763FDFBF736
S21400A92062FDFBF762FDBDE80840FBF760BD000076
S21400A93010B50446FCF7AEFA0C4BA0F57A729A42B4
S21400A94012D84FF47A73B0FBF3F05C43084BB3FBBA
S21400A950F0F0B4FBF0F0022806D9BDE8104003235F
S21400A960B0FBF3F000F00CB810BD00BFFFC99A3B77
S21400A97040420F0000000000000000000000000041
S21400A980013800D0FCE7704738B50446FEF750F8AB
S21400A990054620462AF05AFF04462846FEF74CF89D
S21400A9A0204638BD37B504460191FEF741F80199B7
S21400A9B0054620462AF00AFF04462846FEF73CF8DD
S21400A9C0204603B030BD38B50546FEF731F80446DC
S21400A9D028462AF043FF2046BDE83840FEF72CB84C
S21400A9E00A4619B1024B00211B681847704700BF82
S21400A9F07C0C002000F4E040B0F5805F04D0A0F5A9
S21400AA00005358425841704701207047B0F5105F18
S21400AA100DD009D8B0F5885F10D0B0F5905F0DD096
S21400AA2041F20103984209D06FF08500704721F08B
S21400AA304003802B02D0B1F5807F06D111F0070FBE
S21400AA4014BF6FF08600002070476FF086007047D6
S21400AA500E4B0340B3F1607F06D1B1F5885F14BF9B
S21400AA606FF0860000207047B3F1707F0BD101F4C1
S21400AA70E043B3F5005F06D111F4E06F0CBF6FF052
S21400AA808600002070476FF0860070470000C07F89
S21400AA908A42F8B507460D4600F01781964B974850
S21400AAA002EA030181420BD0954922F0FF048C4252
S21400AAB006D0944C22F47F7121F00301A1421DD1EF
S21400AAC02B4083420BD08E4B25F0FF01994206D0D7
S21400AAD08C4925F47F7323F003038B420ED115F0C7
S21400AAE0FF030BD0884943F000738B4206D16A40BF
S21400AAF032F0FF030CBF01200020F8BD05F0FE4336
S21400AB00B3F1A06F17D102F0FE43B3F1A06F40F08F
S21400AB10DE8082EA050333F47E1340F0D88015F415
S21400AB200040EAD0C5F30540C2F3054290428CBF10
S21400AB3000200120E1E7B3F1407F40F0B38002F04F
S21400AB40FE43B3F1407F40F0C28082EA050333F44F
S21400AB507E1640F0BC8039462846FFF779FF00286D
S21400AB6040F0B580694C12F47C1C04EA020438D02C
S21400AB70B4F1607FC2F3054C7AD16549D3B243F095
S21400AB8000738B4278D003F17E410439012975D9D0
S21400AB9060498B4276D001318B4275D001318B42B1
S21400ABA074D001318B426BD001318B426AD00131B7
S21400ABB08B4269D003318B4264D001318B4263D023
S21400ABC001318B4262D001318B4208BF402615F41A
S21400ABD07C1FC5F305435BD1664514BF00200120EA
S21400ABE08BE7B4F1607F2BD14949D3B243F00073B1
S21400ABF08B426ED003F17E41043901296CD9454958
S21400AC008B426FD001318B426FD001318B426FD0B7
S21400AC1001318B4263D001318B4263D001318B42CC
S21400AC2063D003318B425DD001318B425DD0013160
S21400AC308B425DD001318B4208BF4FF0400C9CE741
S21400AC40B4F1707FC3D107F4E043B3F5005F05D1DC
S21400AC504FF0010CC7F302230CFA03FC07F4E043A1
S21400AC60B3F5005FB3D10126C7F302239E40AEE7DB
S21400AC70B4F1707FABD1F1E71026A8E71426A6E75B
S21400AC804026A4E71C26A2E72026A0E730269EE75B
S21400AC9012F47C1F01D1B34217D02A047FF52DAFE2
S21400ACA0634544E7B3F1106F11D125F01F6323F419
S21400ACB0702363B902F0FE43B3F1106F07D1164854
S21400ACC0104040F01060A84287E7012015E70020FA
S21400ACD013E74FF0100C50E74FF0140C4DE74FF011
S21400ACE0400C4AE74FF01C0C47E74FF0200C44E7B7
S21400ACF04FF0300C41E700BF00FEFFFF00020006E9
S21400AD000009000600040006FF0000020000C07FE5
S21400AD1003000002080000020000FFF643680A462F
S21400AD201B0A10B403D05DF8044B00F0C5BE438880
S21400AD30B3B1018801F4E040B0F5805F02D0B0F511
S21400AD40005F02D10733DB1009E047F201008142C1
S21400AD500AD15B080133DB1003EBC3033B331360FC
S21400AD6000205DF8044B704744F20100814202D196
S21400AD70DB081033F3E747F20200814204D1DB0818
S21400AD8003EB43035A33EAE744F20200814204D15C
S21400AD90DB0803EB43034A33E1E721F0FF01B1F59B
S21400ADA0E24FCFD0B1F5824F04D10733DB105B0002
S21400ADB00133D4E76FF08500D3E77FB500F0FE4699
S21400ADC0B6F1106F0D4603D06FF0850004B070BD6D
S21400ADD020F01F6424F47024002CF5D10A9C029401
S21400ADE0099C0194089C009400F08AFF10F1860FDD
S21400ADF0ECD16B681B0AE9D1E6E700002DE9F843C1
S21400AE00884617461C4601F051F8054600283FD1F3
S21400AE10D8F80060B6F8009009F4E043B3F5804F28
S21400AE20F36808BF27F0010737EA030328D17CB38D
S21400AE30224A24F4FF7323F0010393420BD0204BE5
S21400AE4024F0FF029A4206D01E4A24F47F7323F0B1
S21400AE50030393421FD114F0FF0304D01A4A43F0B1
S21400AE60007393421ED0224648463169FFF710FE13
S21400AE70074668B9224648467169FFF709FED0B909
S21400AE806FF0840500233046C8F8003001F05CF807
S21400AE902846BDE8F88304F0FE43B3F1407F04D1B2
S21400AEA02304E0D56FF08605ECE7B3F1A06FF7D08A
S21400AEB0054B9C42D6E73D46EAE700BF0002000687
S21400AEC00009000600040006FF00000238B50379FA
S21400AED004460D4633B9A36820462B6001F034F8CB
S21400AEE038B938BDD0E9081201F0F6F80028F2D0DB
S21400AEF0F7E700232B60F4E700F0FE43B3F1407F52
S21400AF0070B505460E4640F09980FFF7A1FD002873
S21400AF1040F0968015F47C1F05D0C5F30543032B3F
S21400AF2013700DD86BE04C4B2B40B3F1607F69D1AA
S21400AF304A49EBB243F000738B4231D110231370B1
S21400AF40454C2C40B4F1607F6AD14449EAB242F0E5
S21400AF5000728A4275D002F17E410439012972D905
S21400AF603F498A4271D001318A4270D001318A420B
S21400AF706FD001318A4211D001318A4265D0013149
S21400AF808A4264D003318A425FD001318A425ED061
S21400AF9001318A425DD001318A424FD140214BE0D7
S21400AFA003F17E410439012901D81423C7E72C494F
S21400AFB08B4201D11C23C2E72A498B4201D12023B0
S21400AFC0BDE729498B4201D13023B8E727498B4298
S21400AFD001D14023B3E726498B42EBD001318B42A7
S21400AFE0EDD003318B42E5D001318B42E7D0013101
S21400AFF08B42E9D001318B42EBD0002313706FF007
S21400B00085001DE0B3F1707FF7D101F4E043B3F59E
S21400B010005FF2D10123C1F302218B40DBB27EE751
S21400B020B4F1707F0AD106F4E042B2F5005F05D1B4
S21400B0300121C6F3022291408B4201D96FF08600AF
S21400B04070BD1021F8E71421F6E71C21F4E7202153
S21400B050F2E73021F0E700BF0000C07F03000002E7
S21400B06008000002090000020A0000020B000002AD
S21400B0700C0000022DE9F047174624220D46002159
S21400B080044692B00DEB02009A46DDE91A868DF86A
S21400B0901F10DDF870902AF020FC1D9B2046002B28
S21400B0A018BF4FF480522B4608BF4FF4005208A931
S21400B0B0FFF7A4FE044620BBDDF820C009ACBCE8C0
S21400B0C00F000FC49CE8070084E807002846BDF878
S21400B0D024100DF11F02FFF70FFF044688B99DF8F4
S21400B0E01F30B34224D8CDE90339CDE901A8089929
S21400B0F000972B46D1E9081209A800F0AEFD0446D9
S21400B10020B10023C9F800608DF81F309DF81F009D
S21400B110B04204D2321A212140442AF0DEFB0898BD
S21400B12000F012FF002C18BF204612B0BDE8F087D2
S21400B1306FF08904E5E700232DE9F341D0E90168C3
S21400B14004460F4630461146136000F007FF0546DA
S21400B15088B9304600F004FF054660B9F6B276B905
S21400B160B8F1000F05D1E36823F47F4323F003030F
S21400B17063B16FF08605284602B0BDE8F08101464F
S21400B180A06800F0E6FD0028EDD1F2E74FF6F87370
S21400B19062889A421CD8238B23F00103002BE8D147
S21400B1A0394601A800F040FE05460028E3D10FCC42
S21400B1B03F683E460FC694E807003B7986E80700DE
S21400B1C00BB9019BBB603B8B23F001033B83D2E7AB
S21400B1D06FF08505CFE770B5046A05460E463CB9A4
S21400B1E00120FFF7DFFB286228B120466E6270BDA3
S21400B1F06FF08A00FBE76FF08C00F8E773B50E4639
S21400B200114605460192FFF7E6FF044620B931468F
S21400B210019A286A2AF03AFB204602B070BD2DE952
S21400B220F041089E88461F46048822B96FF08504C0
S21400B2302046BDE8F0812046FFF7DCFB0028F5D06D
S21400B24033680BB9D3003360B2F1005FEED24FF62D
S21400B250F87331689942E9D82046FFF7D7FB0446D1
S21400B2600028E5D1CD1D0699EB08B1EBD50F0BD321
S21400B27093420CD1414638462AF008FB3368079AB9
S21400B2800733DB081360D3E76FF08904D0E76FF06D
S21400B2908604CDE710B50446006A10B1616AFFF770
S21400B2A09FFB206AFFF78FFB0020C4E9080010BD53
S21400B2B038B50446FFF7EEFFE3692822012B0CBFE2
S21400B2C005466FF09605002120462AF006FB284624
S21400B2D038BD13B5044660B101A900F0E7FD044689
S21400B2E038B90198C369012B06D900F02DFE6FF01E
S21400B2F08304204602B010BD0379FF2B0BD01BB190
S21400B300806800F03FFE04460198FFF7D1FF002852
S21400B31018BF0446EDE76FF08404F5E773B50446FE
S21400B32008460E4600F09AFB002320461A4601A95E
S21400B330FFF764FD70B93446019D0FCD0FC495E844
S21400B340070084E80700338B019803F0010333837A
S21400B35000F0FAFD02B070BD70B5144602881D46B6
S21400B3601046049EFFF746FB50B944F2010322F450
S21400B3704050984204D002F44F42B2F5824F0ED1AC
S21400B380B4420FD8224628462AF080FA0021321B03
S21400B39028192AF0A2FA0020059B1C6070BD6FF0E9
S21400B3A08500FBE76FF08900F8E72DE9F041884655
S21400B3B01F4616468CB022B3002301223B6002A92A
S21400B3C0FFF71CFDD0B9DDF808C003AC6546CDE933
S21400B3D00A000FCD0FC495E8070084E80700CDE902
S21400B3E000674346DCE9081203A800F0FCFB0446AD
S21400B3F0029800F0A9FD002C18BF20460CB0BDE84E
S21400B400F0816FF08900F9E770B51D4644F201033C
S21400B41014460288049E22F44050984204D002F457
S21400B4204F43B3F5824F13D102F4E042B2F5804F9A
S21400B4300ED1B4420FD8224628462AF027FA002119
S21400B440321B28192AF049FA0020059B1C6070BDA3
S21400B4506FF08500FBE76FF08900F8E72DE9F04311
S21400B4608946984617468DB052B3002302A91A465D
S21400B470C8F80030FFF7C2FCE0B9029E33885B04D0
S21400B4801BD5354603ACCDE90A000FCD0FC495E8B1
S21400B490070084E80700CDE900784B46D6E9081295
S21400B4A003A800F0ABFB0446029800F04DFD002C0C
S21400B4B018BF20460DB0BDE8F0836FF08604F3E7B2
S21400B4C06FF08900F6E72DE9F0411E46002388B0AC
S21400B4D0054688461746CDE9043307923360002AAE
S21400B4E04CD005AA04A9FFF726FE0446D0B9284684
S21400B4F007A9FFF713FC0446A0B90498036AB3B182
S21400B500049B41465A882846069206AA029203F1F0
S21400B510240201925A6A00921B6A3A4600F03CFBEB
S21400B520044658B1049800B3FFF7C2FE1DE0079921
S21400B530FFF751FE04460028E2D0F3E70498069B86
S21400B5404288B2B943802B8813B102889A4212D13E
S21400B5502B6A83B96B8813B142889A420BD1314665
S21400B560FFF7B4FC04460028DCD1204608B0BDE84E
S21400B570F0819A42E7D06FF08604D3E76FF0860436
S21400B580F3E7036810B5044653B100F0B0FB0023A0
S21400B5902360A38823F4FF7323F00103A38010BD68
S21400B5A01846FCE72DE9F04105460C4600218CB014
S21400B5B0174603A82422984602912AF08EF92B6893
S21400B5C0002B3DD1B8F1000F20463B4614BF4FF488
S21400B5D080524FF4005202A9FFF710FC044600BB4D
S21400B5E0029E03AC0FCE0FC496E8070084E807005F
S21400B5F03846BDF80C102A1DFFF77EFC044680B9BD
S21400B6006B79284668F300036B71029B03A9D3E9A4
S21400B61008230097B8F1000F0FD000F02BFB04466C
S21400B62010B12846FFF7ADFF029800F08DFC002C05
S21400B63018BF20460CB0BDE8F08100F02EFBEEE708
S21400B6406FF08804EDE70123FFF7ACBF38B5036859
S21400B650054614464BB132B100F032FB044610B139
S21400B6602846FFF78EFF204638BD6FF08804FAE7BD
S21400B6702DE9F0411646026805460F469846F2B197
S21400B6804279D2071BD50279CAB1B2421AD800F065
S21400B69020FB044618B10023C8F800602B712879F7
S21400B6A0B04204D2321A212138442AF016F928462C
S21400B6B0FFF767FF002C18BF2046BDE8F0816FF04B
S21400B6C08804E8E76FF08904E5E71FB501240394D2
S21400B6D0089C0294079C0194069C0094FFF7CAFC01
S21400B6E004B010BD37B50C4D0C462B7ADB070FD5D2
S21400B6F000230A460193014601AB284602F0F2FDFC
S21400B70020B9019BA34218BF6FF0930003B030BD71
S21400B7106FF08800FAE700BFE42000202DE9F0472C
S21400B7201F46002390B0DDF868A00D46DDE91889B5
S21400B730CAF8003001F0FE43B3F1806F16465AD1C6
S21400B7400B464FF4807206A9FFF758FB00283FD13E
S21400B750DDF818E007ACF446CDE90E00BCE80F00B3
S21400B7600FC49CE80700BEF8003084E8070003F426
S21400B770E042B2F5005F14D10121C3F302229140EA
S21400B7807AB11E4825F48072824228D000F50070F7
S21400B790854224D01A48854221D0A0F53F408242F7
S21400B7A01DD042F20402934215D0CDE9039ACDE9AA
S21400B7B00178069900962B46D1E9081207A800F0F2
S21400B7C03FFA0446069800F0BFFB002C18BF204640
S21400B7D010B0BDE8F0870B4B9D42E6D10C218945A1
S21400B7E006D34046FFF77EFF04460028DDD0E9E793
S21400B7F06FF08904E6E76FF08600E9E70010C00402
S21400B80000FF4004000180042DE9F04705469A46F3
S21400B810002386B0059305F0FE43B3F1106F08468B
S21400B820DDE90E961746DDF8408022D12B464FF410
S21400B830804205A9FFF7E2FA044658B953463A464D
S21400B8402846CDE901680599CDF80090FFF7B5FACE
S21400B850044628B131464846FFF744FFC8F8006062
S21400B860059800F071FB002C18BF204606B0BDE816
S21400B870F0876FF08604EDE7034610B50C461146D8
S21400B880DA6900880AB91B6A3BB9FFF7B3F838B122
S21400B8902046BDE81040FFF725BF6FF0860010BDBC
S21400B8A06FF08500FBE72DE9FF410023CDE901336A
S21400B8B00B60438806460D46002B00F0878002AAE0
S21400B8C001A9FFF738FC044600BB019B1B6A73B155
